{
  "address": "0xe3F324dB999000c856dc1D5413567604d7D210F7",
  "abi": [
    {
      "inputs": [
        {
          "internalType": "contract IERC20",
          "name": "usdtAddress",
          "type": "address"
        },
        {
          "internalType": "contract AggregatorV3Interface",
          "name": "btcAggregator",
          "type": "address"
        }
      ],
      "stateMutability": "nonpayable",
      "type": "constructor"
    },
    {
      "anonymous": false,
      "inputs": [
        {
          "indexed": true,
          "internalType": "address",
          "name": "player",
          "type": "address"
        },
        {
          "indexed": false,
          "internalType": "uint80",
          "name": "reward",
          "type": "uint80"
        }
      ],
      "name": "Claim",
      "type": "event"
    },
    {
      "anonymous": false,
      "inputs": [
        {
          "indexed": true,
          "internalType": "address",
          "name": "player",
          "type": "address"
        },
        {
          "indexed": true,
          "internalType": "uint8",
          "name": "prediction",
          "type": "uint8"
        },
        {
          "indexed": false,
          "internalType": "uint32",
          "name": "stakeAmount",
          "type": "uint32"
        }
      ],
      "name": "Predict",
      "type": "event"
    },
    {
      "inputs": [],
      "name": "claim",
      "outputs": [],
      "stateMutability": "nonpayable",
      "type": "function"
    },
    {
      "inputs": [
        {
          "internalType": "address",
          "name": "player",
          "type": "address"
        },
        {
          "internalType": "uint256",
          "name": "timestamp",
          "type": "uint256"
        }
      ],
      "name": "getPlayerStakeInfo",
      "outputs": [
        {
          "components": [
            {
              "internalType": "uint32",
              "name": "stakeAmount",
              "type": "uint32"
            },
            {
              "internalType": "uint8",
              "name": "prediction",
              "type": "uint8"
            }
          ],
          "internalType": "struct EnJoyPrediction.StakeInfo",
          "name": "",
          "type": "tuple"
        }
      ],
      "stateMutability": "view",
      "type": "function"
    },
    {
      "inputs": [
        {
          "internalType": "address",
          "name": "player",
          "type": "address"
        }
      ],
      "name": "getPlayerUnclaimReward",
      "outputs": [
        {
          "internalType": "uint80",
          "name": "claimableReward",
          "type": "uint80"
        }
      ],
      "stateMutability": "view",
      "type": "function"
    },
    {
      "inputs": [
        {
          "internalType": "uint256",
          "name": "timestamp",
          "type": "uint256"
        }
      ],
      "name": "getTableInfo",
      "outputs": [
        {
          "components": [
            {
              "internalType": "enum EnJoyPrediction.TableResult",
              "name": "result",
              "type": "uint8"
            },
            {
              "internalType": "uint64",
              "name": "startPrice",
              "type": "uint64"
            },
            {
              "internalType": "uint80",
              "name": "longPool",
              "type": "uint80"
            },
            {
              "internalType": "uint80",
              "name": "shortPool",
              "type": "uint80"
            },
            {
              "internalType": "uint24",
              "name": "playerCount",
              "type": "uint24"
            }
          ],
          "internalType": "struct EnJoyPrediction.TableInfo",
          "name": "",
          "type": "tuple"
        }
      ],
      "stateMutability": "view",
      "type": "function"
    },
    {
      "inputs": [
        {
          "internalType": "bool",
          "name": "predictLong",
          "type": "bool"
        },
        {
          "internalType": "uint32",
          "name": "stakeAmount",
          "type": "uint32"
        }
      ],
      "name": "predict",
      "outputs": [],
      "stateMutability": "nonpayable",
      "type": "function"
    },
    {
      "inputs": [],
      "name": "settle",
      "outputs": [],
      "stateMutability": "nonpayable",
      "type": "function"
    }
  ],
  "transactionHash": "0x08bd0b06722f4a1420a5a6f4dbfca324c4070924a5c352a968cba6ee5b56576e",
  "args": [
    "0x4Dd548eeba1812b5CB3c21e019929DE0ee80385A",
    "0x007A22900a3B98143368Bd5906f8E17e9867581b"
  ],
  "numDeployments": 1,
  "solcInputHash": "00a942239b04bd10abcacf774273fa93",
  "bytecode": "0x60c060405234801561001057600080fd5b50604051620017ee380380620017ee83398101604081905261003191610060565b6001600160a01b039182166080521660a05261009a565b6001600160a01b038116811461005d57600080fd5b50565b6000806040838503121561007357600080fd5b825161007e81610048565b602084015190925061008f81610048565b809150509250929050565b60805160a051611720620000ce60003960006101f7015260008181610483015281816106710152610b0701526117206000f3fe608060405234801561001057600080fd5b50600436106100725760003560e01c8063833b883611610050578063833b88361461009c57806390dee8dc146100d8578063ba659eef146100f857600080fd5b806311da60b41461007757806345b4dc54146100815780634e71d92d14610094575b600080fd5b61007f610126565b005b61007f61008f366004611310565b61050e565b61007f6108d6565b6100af6100aa36600461137b565b610c2b565b60408051825163ffffffff16815260209283015160ff1692810192909252015b60405180910390f35b6100eb6100e63660046113a5565b610cd8565b6040516100cf91906113ed565b61010b61010636600461147e565b610ddb565b60405169ffffffffffffffffffff90911681526020016100cf565b6000610130610fff565b9050600080806101416001856114c8565b81526020019081526020016000209050600080600060028561016391906114c8565b815260208101919091526040016000208254909150610100900467ffffffffffffffff16156101f3576040517f08c379a000000000000000000000000000000000000000000000000000000000815260206004820152601060248201527f736574746c6520746f6f206561726c790000000000000000000000000000000060448201526064015b60405180910390fd5b60007f000000000000000000000000000000000000000000000000000000000000000073ffffffffffffffffffffffffffffffffffffffff1663feaf968c6040518163ffffffff1660e01b815260040160a060405180830381865afa158015610260573d6000803e3d6000fd5b505050506040513d601f19601f8201168201806040525081019061028491906114f9565b505085547fffffffffffffffffffffffffffffffffffffffffffffff0000000000000000ff1661010067ffffffffffffffff8416021786555083549092508291506901000000000000000000900469ffffffffffffffffffff16158061030c57508254730100000000000000000000000000000000000000900469ffffffffffffffffffff16155b1561033f5782547fffffffffffffffffffffffffffffffffffffffffffffffffffffffffffffff0016600317835561040b565b825467ffffffffffffffff610100909104811690821681101561039257835460019085907fffffffffffffffffffffffffffffffffffffffffffffffffffffffffffffff001682805b0217905550610409565b8067ffffffffffffffff168267ffffffffffffffff1610156103df57835460029085907fffffffffffffffffffffffffffffffffffffffffffffffffffffffffffffff0016600183610388565b83547fffffffffffffffffffffffffffffffffffffffffffffffffffffffffffffff001660031784555b505b8254600090606490610436906901000000000000000000900469ffffffffffffffffffff1680611549565b61044091906115a6565b6040517fa9059cbb00000000000000000000000000000000000000000000000000000000815233600482015269ffffffffffffffffffff821660248201529091507f000000000000000000000000000000000000000000000000000000000000000073ffffffffffffffffffffffffffffffffffffffff169063a9059cbb906044016020604051808303816000875af11580156104e1573d6000803e3d6000fd5b505050506040513d601f19601f8201168201806040525081019061050591906115cf565b50505050505050565b6000610518610fff565b9050624c4b4063ffffffff83161180159061053c5750620f424063ffffffff831610155b6105a2576040517f08c379a000000000000000000000000000000000000000000000000000000000815260206004820152601260248201527f7374616b65206f7574206f662072616e6765000000000000000000000000000060448201526064016101ea565b3360009081526001602052604090206105bb908261100f565b15610622576040517f08c379a000000000000000000000000000000000000000000000000000000000815260206004820152601160248201527f616c72656164792070726564696374656400000000000000000000000000000060448201526064016101ea565b6000818152602081905260409081902090517f23b872dd00000000000000000000000000000000000000000000000000000000815233600482015230602482015263ffffffff841660448201527f000000000000000000000000000000000000000000000000000000000000000073ffffffffffffffffffffffffffffffffffffffff16906323b872dd906064016020604051808303816000875af11580156106cf573d6000803e3d6000fd5b505050506040513d601f19601f820116820180604052508101906106f391906115cf565b50831561075c57805463ffffffff841690829060099061072d9084906901000000000000000000900469ffffffffffffffffffff16611549565b92506101000a81548169ffffffffffffffffffff021916908369ffffffffffffffffffff1602179055506107c4565b805463ffffffff8416908290601390610799908490730100000000000000000000000000000000000000900469ffffffffffffffffffff16611549565b92506101000a81548169ffffffffffffffffffff021916908369ffffffffffffffffffff1602179055505b6000846107d25760026107d5565b60015b60408051808201825263ffffffff8716815260ff83166020918201819052336000908152600190925291902091925064ffffffff00600887901b16179061081d908583611022565b5082548390601d90610854907d010000000000000000000000000000000000000000000000000000000000900462ffffff166115ec565b91906101000a81548162ffffff021916908362ffffff1602179055508160ff163373ffffffffffffffffffffffffffffffffffffffff167f482085beb79794e6a92b889e5de7cd520e9ed2d390274ac1b8d8c084984b8db1876040516108c6919063ffffffff91909116815260200190565b60405180910390a3505050505050565b336000908152600160205260408120906108ef82611037565b90506000805b82811015610aef5760008061090a8684611042565b60408051808201825260ff83811660208084019190915263ffffffff600886901c168352600086815290819052838120845160a08101909552805496985094965091949193918391166003811115610964576109646113be565b6003811115610975576109756113be565b8152905467ffffffffffffffff610100820416602083015269ffffffffffffffffffff6901000000000000000000820481166040840152730100000000000000000000000000000000000000820416606083015262ffffff7d010000000000000000000000000000000000000000000000000000000000909104166080909101529050600381516003811115610a0d57610a0d6113be565b03610a36578151610a249063ffffffff1687611549565b9550610a308885611060565b50610ada565b600081606001518260400151610a4c9190611549565b90506000600183516003811115610a6557610a656113be565b14610a74578260600151610a7a565b82604001515b83519091506003811115610a9057610a906113be565b60ff16846020015160ff1603610ad75783518190610ab590849063ffffffff1661160e565b610abf91906115a6565b610ac99089611549565b9750610ad58a87611060565b505b50505b5050505080610ae890611640565b90506108f5565b5073ffffffffffffffffffffffffffffffffffffffff7f00000000000000000000000000000000000000000000000000000000000000001663a9059cbb336064610b3a85606361160e565b610b4491906115a6565b6040517fffffffff0000000000000000000000000000000000000000000000000000000060e085901b16815273ffffffffffffffffffffffffffffffffffffffff909216600483015269ffffffffffffffffffff1660248201526044016020604051808303816000875af1158015610bc0573d6000803e3d6000fd5b505050506040513d601f19601f82011682018060405250810190610be491906115cf565b5060405169ffffffffffffffffffff8216815233907fae2a1788f6fac2c97d9bafdb0372f44f842d9f5f3f533b820d2dd66bf45fc3f59060200160405180910390a2505050565b60408051808201909152600080825260208201526000610c4a8361106c565b73ffffffffffffffffffffffffffffffffffffffff85166000908152600160205260408120919250908190610c7f9084611088565b915091508115610cb3576040805180820190915260ff82166020820152600882901c63ffffffff1681529350505050610cd2565b505060408051808201909152600080825260208201529150610cd29050565b92915050565b6040805160a081018252600080825260208201819052918101829052606081018290526080810182905290610d0c8361106c565b60008181526020819052604090819020815160a0810190925280549293509091829060ff166003811115610d4257610d426113be565b6003811115610d5357610d536113be565b8152905467ffffffffffffffff610100820416602083015269ffffffffffffffffffff6901000000000000000000820481166040840152730100000000000000000000000000000000000000820416606083015262ffffff7d010000000000000000000000000000000000000000000000000000000000909104166080909101529392505050565b73ffffffffffffffffffffffffffffffffffffffff8116600090815260016020526040812081610e0a82611037565b90506000925060005b81811015610ff757600080610e288584611042565b60408051808201825260ff83811660208084019190915263ffffffff600886901c168352600086815290819052838120845160a08101909552805496985094965091949193918391166003811115610e8257610e826113be565b6003811115610e9357610e936113be565b8152905467ffffffffffffffff610100820416602083015269ffffffffffffffffffff6901000000000000000000820481166040840152730100000000000000000000000000000000000000820416606083015262ffffff7d010000000000000000000000000000000000000000000000000000000000909104166080909101529050600381516003811115610f2b57610f2b6113be565b03610f49578151610f429063ffffffff1689611549565b9750610fe2565b600081606001518260400151610f5f9190611549565b90506000600183516003811115610f7857610f786113be565b14610f87578260600151610f8d565b82604001515b83519091506003811115610fa357610fa36113be565b60ff16846020015160ff1603610fdf5783518190610fc890849063ffffffff1661160e565b610fd291906115a6565b610fdc908b611549565b99505b50505b5050505080610ff090611640565b9050610e13565b505050919050565b600061100a4261106c565b905090565b600061101b8383611097565b9392505050565b600061102f8484846110a3565b949350505050565b6000610cd2826110c0565b600080808061105186866110cb565b909450925050505b9250929050565b600061101b83836110f6565b60006201518061107e61b6d0846114c8565b610cd29190611678565b60008080806110518686611113565b600061101b838361114d565b6000828152600284016020526040812082905561102f8484611165565b6000610cd282611171565b600080806110d9858561117b565b600081815260029690960160205260409095205494959350505050565b6000818152600283016020526040812081905561101b8383611187565b6000818152600283016020526040812054819080611142576111358585611097565b9250600091506110599050565b600192509050611059565b6000818152600183016020526040812054151561101b565b600061101b8383611193565b6000610cd2825490565b600061101b83836111e2565b600061101b838361120c565b60008181526001830160205260408120546111da57508154600181810184556000848152602080822090930184905584548482528286019093526040902091909155610cd2565b506000610cd2565b60008260000182815481106111f9576111f961168c565b9060005260206000200154905092915050565b600081815260018301602052604081205480156112f55760006112306001836114c8565b8554909150600090611244906001906114c8565b90508181146112a95760008660000182815481106112645761126461168c565b90600052602060002001549050808760000184815481106112875761128761168c565b6000918252602080832090910192909255918252600188019052604090208390555b85548690806112ba576112ba6116bb565b600190038181906000526020600020016000905590558560010160008681526020019081526020016000206000905560019350505050610cd2565b6000915050610cd2565b801515811461130d57600080fd5b50565b6000806040838503121561132357600080fd5b823561132e816112ff565b9150602083013563ffffffff8116811461134757600080fd5b809150509250929050565b803573ffffffffffffffffffffffffffffffffffffffff8116811461137657600080fd5b919050565b6000806040838503121561138e57600080fd5b61139783611352565b946020939093013593505050565b6000602082840312156113b757600080fd5b5035919050565b7f4e487b7100000000000000000000000000000000000000000000000000000000600052602160045260246000fd5b815160a08201906004811061142b577f4e487b7100000000000000000000000000000000000000000000000000000000600052602160045260246000fd5b8083525067ffffffffffffffff6020840151166020830152604083015169ffffffffffffffffffff8082166040850152806060860151166060850152505062ffffff608084015116608083015292915050565b60006020828403121561149057600080fd5b61101b82611352565b7f4e487b7100000000000000000000000000000000000000000000000000000000600052601160045260246000fd5b6000828210156114da576114da611499565b500390565b805169ffffffffffffffffffff8116811461137657600080fd5b600080600080600060a0868803121561151157600080fd5b61151a866114df565b945060208601519350604086015192506060860151915061153d608087016114df565b90509295509295909350565b600069ffffffffffffffffffff80831681851680830382111561156e5761156e611499565b01949350505050565b7f4e487b7100000000000000000000000000000000000000000000000000000000600052601260045260246000fd5b600069ffffffffffffffffffff808416806115c3576115c3611577565b92169190910492915050565b6000602082840312156115e157600080fd5b815161101b816112ff565b600062ffffff80831681810361160457611604611499565b6001019392505050565b600069ffffffffffffffffffff8083168185168183048111821515161561163757611637611499565b02949350505050565b60007fffffffffffffffffffffffffffffffffffffffffffffffffffffffffffffffff820361167157611671611499565b5060010190565b60008261168757611687611577565b500490565b7f4e487b7100000000000000000000000000000000000000000000000000000000600052603260045260246000fd5b7f4e487b7100000000000000000000000000000000000000000000000000000000600052603160045260246000fdfea2646970667358221220bdbda480e960cba801452dce3dde0c18beae19c988c19a8465a97a7e4c37ed2364736f6c634300080d0033",
  "devdoc": {
    "author": "InJoy Labs (https://injoylabs.io/)",
    "kind": "dev",
    "methods": {
      "claim()": {
        "details": "Claim reward given table IDs"
      },
      "constructor": {
        "details": "Connect USDT contract and BTC oracle"
      },
      "getPlayerStakeInfo(address,uint256)": {
        "details": "get current stake info of certain player"
      },
      "getPlayerUnclaimReward(address)": {
        "details": "compute unclaimed reward of certain player"
      },
      "getTableInfo(uint256)": {
        "details": "get current stake for long and short"
      },
      "predict(bool,uint32)": {
        "details": "Predict BTC price with certain amount of USDT"
      },
      "settle()": {
        "details": "Settle the result using Chainlink oracle"
      }
    },
    "stateVariables": {
      "_btcPriceFeed": {
        "details": "Chainlink BTC price feed oracle"
      },
      "_stakeInfoMapOf": {
        "details": "Player => (TableID => StakeInfo)"
      },
      "_tableInfoMap": {
        "details": "TableID => TableInfo"
      },
      "_usdt": {
        "details": "USDT contract"
      }
    },
    "title": "A game about predicting the price of BTC",
    "version": 1
  },
  "userdoc": {
    "kind": "user",
    "methods": {},
    "version": 1
  },
  "storageLayout": {
    "storage": [
      {
        "astId": 795,
        "contract": "contracts/EnJoyPrediction.sol:EnJoyPrediction",
        "label": "_tableInfoMap",
        "offset": 0,
        "slot": "0",
        "type": "t_mapping(t_uint256,t_struct(TableInfo)767_storage)"
      },
      {
        "astId": 801,
        "contract": "contracts/EnJoyPrediction.sol:EnJoyPrediction",
        "label": "_stakeInfoMapOf",
        "offset": 0,
        "slot": "1",
        "type": "t_mapping(t_address,t_struct(U2UMap)1726_storage)"
      }
    ],
    "types": {
      "t_address": {
        "encoding": "inplace",
        "label": "address",
        "numberOfBytes": "20"
      },
      "t_array(t_bytes32)dyn_storage": {
        "base": "t_bytes32",
        "encoding": "dynamic_array",
        "label": "bytes32[]",
        "numberOfBytes": "32"
      },
      "t_bytes32": {
        "encoding": "inplace",
        "label": "bytes32",
        "numberOfBytes": "32"
      },
      "t_enum(TableResult)755": {
        "encoding": "inplace",
        "label": "enum EnJoyPrediction.TableResult",
        "numberOfBytes": "1"
      },
      "t_mapping(t_address,t_struct(U2UMap)1726_storage)": {
        "encoding": "mapping",
        "key": "t_address",
        "label": "mapping(address => struct EnumerableMap.U2UMap)",
        "numberOfBytes": "32",
        "value": "t_struct(U2UMap)1726_storage"
      },
      "t_mapping(t_bytes32,t_bytes32)": {
        "encoding": "mapping",
        "key": "t_bytes32",
        "label": "mapping(bytes32 => bytes32)",
        "numberOfBytes": "32",
        "value": "t_bytes32"
      },
      "t_mapping(t_bytes32,t_uint256)": {
        "encoding": "mapping",
        "key": "t_bytes32",
        "label": "mapping(bytes32 => uint256)",
        "numberOfBytes": "32",
        "value": "t_uint256"
      },
      "t_mapping(t_uint256,t_struct(TableInfo)767_storage)": {
        "encoding": "mapping",
        "key": "t_uint256",
        "label": "mapping(uint256 => struct EnJoyPrediction.TableInfo)",
        "numberOfBytes": "32",
        "value": "t_struct(TableInfo)767_storage"
      },
      "t_struct(Bytes32Set)328_storage": {
        "encoding": "inplace",
        "label": "struct EnumerableSet.Bytes32Set",
        "members": [
          {
            "astId": 327,
            "contract": "contracts/EnJoyPrediction.sol:EnJoyPrediction",
            "label": "_inner",
            "offset": 0,
            "slot": "0",
            "type": "t_struct(Set)134_storage"
          }
        ],
        "numberOfBytes": "64"
      },
      "t_struct(Map)1496_storage": {
        "encoding": "inplace",
        "label": "struct EnumerableMap.Map",
        "members": [
          {
            "astId": 1491,
            "contract": "contracts/EnJoyPrediction.sol:EnJoyPrediction",
            "label": "_keys",
            "offset": 0,
            "slot": "0",
            "type": "t_struct(Bytes32Set)328_storage"
          },
          {
            "astId": 1495,
            "contract": "contracts/EnJoyPrediction.sol:EnJoyPrediction",
            "label": "_values",
            "offset": 0,
            "slot": "2",
            "type": "t_mapping(t_bytes32,t_bytes32)"
          }
        ],
        "numberOfBytes": "96"
      },
      "t_struct(Set)134_storage": {
        "encoding": "inplace",
        "label": "struct EnumerableSet.Set",
        "members": [
          {
            "astId": 129,
            "contract": "contracts/EnJoyPrediction.sol:EnJoyPrediction",
            "label": "_values",
            "offset": 0,
            "slot": "0",
            "type": "t_array(t_bytes32)dyn_storage"
          },
          {
            "astId": 133,
            "contract": "contracts/EnJoyPrediction.sol:EnJoyPrediction",
            "label": "_indexes",
            "offset": 0,
            "slot": "1",
            "type": "t_mapping(t_bytes32,t_uint256)"
          }
        ],
        "numberOfBytes": "64"
      },
      "t_struct(TableInfo)767_storage": {
        "encoding": "inplace",
        "label": "struct EnJoyPrediction.TableInfo",
        "members": [
          {
            "astId": 758,
            "contract": "contracts/EnJoyPrediction.sol:EnJoyPrediction",
            "label": "result",
            "offset": 0,
            "slot": "0",
            "type": "t_enum(TableResult)755"
          },
          {
            "astId": 760,
            "contract": "contracts/EnJoyPrediction.sol:EnJoyPrediction",
            "label": "startPrice",
            "offset": 1,
            "slot": "0",
            "type": "t_uint64"
          },
          {
            "astId": 762,
            "contract": "contracts/EnJoyPrediction.sol:EnJoyPrediction",
            "label": "longPool",
            "offset": 9,
            "slot": "0",
            "type": "t_uint80"
          },
          {
            "astId": 764,
            "contract": "contracts/EnJoyPrediction.sol:EnJoyPrediction",
            "label": "shortPool",
            "offset": 19,
            "slot": "0",
            "type": "t_uint80"
          },
          {
            "astId": 766,
            "contract": "contracts/EnJoyPrediction.sol:EnJoyPrediction",
            "label": "playerCount",
            "offset": 29,
            "slot": "0",
            "type": "t_uint24"
          }
        ],
        "numberOfBytes": "32"
      },
      "t_struct(U2UMap)1726_storage": {
        "encoding": "inplace",
        "label": "struct EnumerableMap.U2UMap",
        "members": [
          {
            "astId": 1725,
            "contract": "contracts/EnJoyPrediction.sol:EnJoyPrediction",
            "label": "_inner",
            "offset": 0,
            "slot": "0",
            "type": "t_struct(Map)1496_storage"
          }
        ],
        "numberOfBytes": "96"
      },
      "t_uint24": {
        "encoding": "inplace",
        "label": "uint24",
        "numberOfBytes": "3"
      },
      "t_uint256": {
        "encoding": "inplace",
        "label": "uint256",
        "numberOfBytes": "32"
      },
      "t_uint64": {
        "encoding": "inplace",
        "label": "uint64",
        "numberOfBytes": "8"
      },
      "t_uint80": {
        "encoding": "inplace",
        "label": "uint80",
        "numberOfBytes": "10"
      }
    }
  }
}