{
  "address": "0x4078FFb52019277AA08fa83720cE3EfC38Be7327",
  "abi": [
    {
      "inputs": [
        {
          "internalType": "contract IERC20",
          "name": "usdtAddress",
          "type": "address"
        },
        {
          "internalType": "contract AggregatorV3Interface",
          "name": "btcAggregator",
          "type": "address"
        }
      ],
      "stateMutability": "nonpayable",
      "type": "constructor"
    },
    {
      "inputs": [],
      "name": "claim",
      "outputs": [],
      "stateMutability": "nonpayable",
      "type": "function"
    },
    {
      "inputs": [
        {
          "internalType": "address",
          "name": "player",
          "type": "address"
        },
        {
          "internalType": "uint256",
          "name": "timestamp",
          "type": "uint256"
        }
      ],
      "name": "getPlayerStakeInfo",
      "outputs": [
        {
          "components": [
            {
              "internalType": "uint32",
              "name": "stakeAmount",
              "type": "uint32"
            },
            {
              "internalType": "uint8",
              "name": "prediction",
              "type": "uint8"
            }
          ],
          "internalType": "struct EnJoyPrediction.StakeInfo",
          "name": "",
          "type": "tuple"
        }
      ],
      "stateMutability": "view",
      "type": "function"
    },
    {
      "inputs": [
        {
          "internalType": "address",
          "name": "player",
          "type": "address"
        }
      ],
      "name": "getPlayerUnclaimReward",
      "outputs": [
        {
          "internalType": "uint80",
          "name": "claimableReward",
          "type": "uint80"
        }
      ],
      "stateMutability": "view",
      "type": "function"
    },
    {
      "inputs": [
        {
          "internalType": "uint256",
          "name": "timestamp",
          "type": "uint256"
        }
      ],
      "name": "getTableInfo",
      "outputs": [
        {
          "components": [
            {
              "internalType": "enum EnJoyPrediction.TableResult",
              "name": "result",
              "type": "uint8"
            },
            {
              "internalType": "uint64",
              "name": "startPrice",
              "type": "uint64"
            },
            {
              "internalType": "uint80",
              "name": "longPool",
              "type": "uint80"
            },
            {
              "internalType": "uint80",
              "name": "shortPool",
              "type": "uint80"
            },
            {
              "internalType": "uint24",
              "name": "playerCount",
              "type": "uint24"
            }
          ],
          "internalType": "struct EnJoyPrediction.TableInfo",
          "name": "",
          "type": "tuple"
        }
      ],
      "stateMutability": "view",
      "type": "function"
    },
    {
      "inputs": [
        {
          "internalType": "bool",
          "name": "predictLong",
          "type": "bool"
        },
        {
          "internalType": "uint32",
          "name": "stakeAmount",
          "type": "uint32"
        }
      ],
      "name": "predict",
      "outputs": [],
      "stateMutability": "nonpayable",
      "type": "function"
    },
    {
      "inputs": [],
      "name": "settle",
      "outputs": [],
      "stateMutability": "nonpayable",
      "type": "function"
    }
  ],
  "transactionHash": "0xb93cebd594e8a8cdeb2d5bcdd4239cf579e356bd8168a8e5c3c9036540af6e6c",
  "args": [
    "0x4Dd548eeba1812b5CB3c21e019929DE0ee80385A",
    "0x007A22900a3B98143368Bd5906f8E17e9867581b"
  ],
  "numDeployments": 3,
  "solcInputHash": "dfda1aece35b3b856b2ab5dafd9756f5",
  "bytecode": "0x60c060405234801561001057600080fd5b50604051620017623803806200176283398101604081905261003191610060565b6001600160a01b039182166080521660a05261009a565b6001600160a01b038116811461005d57600080fd5b50565b6000806040838503121561007357600080fd5b825161007e81610048565b602084015190925061008f81610048565b809150509250929050565b60805160a051611694620000ce60003960006101f8015260008181610484015281816106720152610abb01526116946000f3fe608060405234801561001057600080fd5b50600436106100725760003560e01c8063833b883611610050578063833b88361461009c57806390dee8dc146100d8578063ba659eef146100f857600080fd5b806311da60b41461007757806345b4dc54146100815780634e71d92d14610094575b600080fd5b61007f610126565b005b61007f61008f366004611284565b61050f565b61007f610889565b6100af6100aa3660046112ef565b610b9e565b60408051825163ffffffff16815260209283015160ff1692810192909252015b60405180910390f35b6100eb6100e6366004611319565b610c4b565b6040516100cf9190611361565b61010b6101063660046113f2565b610d4e565b60405169ffffffffffffffffffff90911681526020016100cf565b6000610130610f73565b90506000600181610141828561143c565b81526020019081526020016000209050600060016000600285610164919061143c565b815260208101919091526040016000208254909150610100900467ffffffffffffffff16156101f4576040517f08c379a000000000000000000000000000000000000000000000000000000000815260206004820152601060248201527f736574746c6520746f6f206561726c790000000000000000000000000000000060448201526064015b60405180910390fd5b60007f000000000000000000000000000000000000000000000000000000000000000073ffffffffffffffffffffffffffffffffffffffff1663feaf968c6040518163ffffffff1660e01b815260040160a060405180830381865afa158015610261573d6000803e3d6000fd5b505050506040513d601f19601f82011682018060405250810190610285919061146d565b505085547fffffffffffffffffffffffffffffffffffffffffffffff0000000000000000ff1661010067ffffffffffffffff8416021786555083549092508291506901000000000000000000900469ffffffffffffffffffff16158061030d57508254730100000000000000000000000000000000000000900469ffffffffffffffffffff16155b156103405782547fffffffffffffffffffffffffffffffffffffffffffffffffffffffffffffff0016600317835561040c565b825467ffffffffffffffff610100909104811690821681101561039357835460019085907fffffffffffffffffffffffffffffffffffffffffffffffffffffffffffffff001682805b021790555061040a565b8067ffffffffffffffff168267ffffffffffffffff1610156103e057835460029085907fffffffffffffffffffffffffffffffffffffffffffffffffffffffffffffff0016600183610389565b83547fffffffffffffffffffffffffffffffffffffffffffffffffffffffffffffff001660031784555b505b8254600090606490610437906901000000000000000000900469ffffffffffffffffffff16806114bd565b610441919061151a565b6040517fa9059cbb00000000000000000000000000000000000000000000000000000000815233600482015269ffffffffffffffffffff821660248201529091507f000000000000000000000000000000000000000000000000000000000000000073ffffffffffffffffffffffffffffffffffffffff169063a9059cbb906044016020604051808303816000875af11580156104e2573d6000803e3d6000fd5b505050506040513d601f19601f820116820180604052508101906105069190611543565b50505050505050565b6000610519610f73565b9050624c4b4063ffffffff83161180159061053d5750620f424063ffffffff831610155b6105a3576040517f08c379a000000000000000000000000000000000000000000000000000000000815260206004820152601260248201527f7374616b65206f7574206f662072616e6765000000000000000000000000000060448201526064016101eb565b3360009081526020819052604090206105bc9082610f83565b15610623576040517f08c379a000000000000000000000000000000000000000000000000000000000815260206004820152601160248201527f616c72656164792070726564696374656400000000000000000000000000000060448201526064016101eb565b6000818152600160205260409081902090517f23b872dd00000000000000000000000000000000000000000000000000000000815233600482015230602482015263ffffffff841660448201527f000000000000000000000000000000000000000000000000000000000000000073ffffffffffffffffffffffffffffffffffffffff16906323b872dd906064016020604051808303816000875af11580156106d0573d6000803e3d6000fd5b505050506040513d601f19601f820116820180604052508101906106f49190611543565b50831561075d57805463ffffffff841690829060099061072e9084906901000000000000000000900469ffffffffffffffffffff166114bd565b92506101000a81548169ffffffffffffffffffff021916908369ffffffffffffffffffff1602179055506107c5565b805463ffffffff841690829060139061079a908490730100000000000000000000000000000000000000900469ffffffffffffffffffff166114bd565b92506101000a81548169ffffffffffffffffffff021916908369ffffffffffffffffffff1602179055505b600061081260405180604001604052808663ffffffff168152602001876107ed5760026107f0565b60015b60ff90811690915281516020909201511660089190911b64ffffffff00161790565b33600090815260208190526040902090915061082f908483610f96565b5081548290601d90610866907d010000000000000000000000000000000000000000000000000000000000900462ffffff16611560565b91906101000a81548162ffffff021916908362ffffff1602179055505050505050565b336000908152602081905260408120906108a282610fab565b90506000805b82811015610aa3576000806108bd8684610fb6565b60408051808201825260ff83811660208084019190915263ffffffff600886901c16835260008681526001909152838120845160a0810190955280549698509496509194919391839116600381111561091857610918611332565b600381111561092957610929611332565b8152905467ffffffffffffffff610100820416602083015269ffffffffffffffffffff6901000000000000000000820481166040840152730100000000000000000000000000000000000000820416606083015262ffffff7d0100000000000000000000000000000000000000000000000000000000009091041660809091015290506003815160038111156109c1576109c1611332565b036109ea5781516109d89063ffffffff16876114bd565b95506109e48885610fd4565b50610a8e565b600081606001518260400151610a0091906114bd565b90506000600183516003811115610a1957610a19611332565b14610a28578260600151610a2e565b82604001515b83519091506003811115610a4457610a44611332565b60ff16846020015160ff1603610a8b5783518190610a6990849063ffffffff16611582565b610a73919061151a565b610a7d90896114bd565b9750610a898a87610fd4565b505b50505b5050505080610a9c906115b4565b90506108a8565b5073ffffffffffffffffffffffffffffffffffffffff7f00000000000000000000000000000000000000000000000000000000000000001663a9059cbb336064610aee856063611582565b610af8919061151a565b6040517fffffffff0000000000000000000000000000000000000000000000000000000060e085901b16815273ffffffffffffffffffffffffffffffffffffffff909216600483015269ffffffffffffffffffff1660248201526044016020604051808303816000875af1158015610b74573d6000803e3d6000fd5b505050506040513d601f19601f82011682018060405250810190610b989190611543565b50505050565b60408051808201909152600080825260208201526000610bbd83610fe0565b73ffffffffffffffffffffffffffffffffffffffff85166000908152602081905260408120919250908190610bf29084610ffc565b915091508115610c26576040805180820190915260ff82166020820152600882901c63ffffffff1681529350505050610c45565b505060408051808201909152600080825260208201529150610c459050565b92915050565b6040805160a081018252600080825260208201819052918101829052606081018290526080810182905290610c7f83610fe0565b60008181526001602052604090819020815160a0810190925280549293509091829060ff166003811115610cb557610cb5611332565b6003811115610cc657610cc6611332565b8152905467ffffffffffffffff610100820416602083015269ffffffffffffffffffff6901000000000000000000820481166040840152730100000000000000000000000000000000000000820416606083015262ffffff7d010000000000000000000000000000000000000000000000000000000000909104166080909101529392505050565b73ffffffffffffffffffffffffffffffffffffffff8116600090815260208190526040812081610d7d82610fab565b90506000925060005b81811015610f6b57600080610d9b8584610fb6565b60408051808201825260ff83811660208084019190915263ffffffff600886901c16835260008681526001909152838120845160a08101909552805496985094965091949193918391166003811115610df657610df6611332565b6003811115610e0757610e07611332565b8152905467ffffffffffffffff610100820416602083015269ffffffffffffffffffff6901000000000000000000820481166040840152730100000000000000000000000000000000000000820416606083015262ffffff7d010000000000000000000000000000000000000000000000000000000000909104166080909101529050600381516003811115610e9f57610e9f611332565b03610ebd578151610eb69063ffffffff16896114bd565b9750610f56565b600081606001518260400151610ed391906114bd565b90506000600183516003811115610eec57610eec611332565b14610efb578260600151610f01565b82604001515b83519091506003811115610f1757610f17611332565b60ff16846020015160ff1603610f535783518190610f3c90849063ffffffff16611582565b610f46919061151a565b610f50908b6114bd565b99505b50505b5050505080610f64906115b4565b9050610d86565b505050919050565b6000610f7e42610fe0565b905090565b6000610f8f838361100b565b9392505050565b6000610fa3848484611017565b949350505050565b6000610c4582611034565b6000808080610fc5868661103f565b909450925050505b9250929050565b6000610f8f838361106a565b600062015180610ff2619ab08461143c565b610c4591906115ec565b6000808080610fc58686611087565b6000610f8f83836110c1565b60008281526002840160205260408120829055610fa384846110d9565b6000610c45826110e5565b6000808061104d85856110ef565b600081815260029690960160205260409095205494959350505050565b60008181526002830160205260408120819055610f8f83836110fb565b60008181526002830160205260408120548190806110b6576110a9858561100b565b925060009150610fcd9050565b600192509050610fcd565b60008181526001830160205260408120541515610f8f565b6000610f8f8383611107565b6000610c45825490565b6000610f8f8383611156565b6000610f8f8383611180565b600081815260018301602052604081205461114e57508154600181810184556000848152602080822090930184905584548482528286019093526040902091909155610c45565b506000610c45565b600082600001828154811061116d5761116d611600565b9060005260206000200154905092915050565b600081815260018301602052604081205480156112695760006111a460018361143c565b85549091506000906111b89060019061143c565b905081811461121d5760008660000182815481106111d8576111d8611600565b90600052602060002001549050808760000184815481106111fb576111fb611600565b6000918252602080832090910192909255918252600188019052604090208390555b855486908061122e5761122e61162f565b600190038181906000526020600020016000905590558560010160008681526020019081526020016000206000905560019350505050610c45565b6000915050610c45565b801515811461128157600080fd5b50565b6000806040838503121561129757600080fd5b82356112a281611273565b9150602083013563ffffffff811681146112bb57600080fd5b809150509250929050565b803573ffffffffffffffffffffffffffffffffffffffff811681146112ea57600080fd5b919050565b6000806040838503121561130257600080fd5b61130b836112c6565b946020939093013593505050565b60006020828403121561132b57600080fd5b5035919050565b7f4e487b7100000000000000000000000000000000000000000000000000000000600052602160045260246000fd5b815160a08201906004811061139f577f4e487b7100000000000000000000000000000000000000000000000000000000600052602160045260246000fd5b8083525067ffffffffffffffff6020840151166020830152604083015169ffffffffffffffffffff8082166040850152806060860151166060850152505062ffffff608084015116608083015292915050565b60006020828403121561140457600080fd5b610f8f826112c6565b7f4e487b7100000000000000000000000000000000000000000000000000000000600052601160045260246000fd5b60008282101561144e5761144e61140d565b500390565b805169ffffffffffffffffffff811681146112ea57600080fd5b600080600080600060a0868803121561148557600080fd5b61148e86611453565b94506020860151935060408601519250606086015191506114b160808701611453565b90509295509295909350565b600069ffffffffffffffffffff8083168185168083038211156114e2576114e261140d565b01949350505050565b7f4e487b7100000000000000000000000000000000000000000000000000000000600052601260045260246000fd5b600069ffffffffffffffffffff80841680611537576115376114eb565b92169190910492915050565b60006020828403121561155557600080fd5b8151610f8f81611273565b600062ffffff8083168181036115785761157861140d565b6001019392505050565b600069ffffffffffffffffffff808316818516818304811182151516156115ab576115ab61140d565b02949350505050565b60007fffffffffffffffffffffffffffffffffffffffffffffffffffffffffffffffff82036115e5576115e561140d565b5060010190565b6000826115fb576115fb6114eb565b500490565b7f4e487b7100000000000000000000000000000000000000000000000000000000600052603260045260246000fd5b7f4e487b7100000000000000000000000000000000000000000000000000000000600052603160045260246000fdfea26469706673582212206b4ca27a99f56abc811412b23ae8d065afcec6b373e5d2293792fdda4055fc7564736f6c634300080d0033",
  "devdoc": {
    "author": "InJoy Labs (https://injoylabs.io/)",
    "kind": "dev",
    "methods": {
      "claim()": {
        "details": "Claim reward given table IDs"
      },
      "constructor": {
        "details": "Connect USDT contract and BTC oracle"
      },
      "getPlayerStakeInfo(address,uint256)": {
        "details": "get current stake info of certain player"
      },
      "getPlayerUnclaimReward(address)": {
        "details": "compute unclaimed reward of certain player"
      },
      "getTableInfo(uint256)": {
        "details": "get current stake for long and short"
      },
      "predict(bool,uint32)": {
        "details": "Predict BTC price with certain amount of USDT"
      },
      "settle()": {
        "details": "Settle the result using Chainlink oracle"
      }
    },
    "stateVariables": {
      "_btcPriceFeed": {
        "details": "Chainlink BTC price feed oracle"
      },
      "_stakeInfoMapOf": {
        "details": "Player => (TableID => StakeInfo)"
      },
      "_tableInfoMap": {
        "details": "TableID => TableInfo"
      },
      "_usdt": {
        "details": "USDT contract"
      }
    },
    "title": "A game about predicting the price of BTC",
    "version": 1
  },
  "userdoc": {
    "kind": "user",
    "methods": {},
    "version": 1
  },
  "storageLayout": {
    "storage": [
      {
        "astId": 1414,
        "contract": "contracts/EnJoyPrediction.sol:EnJoyPrediction",
        "label": "_stakeInfoMapOf",
        "offset": 0,
        "slot": "0",
        "type": "t_mapping(t_address,t_struct(U2UMap)2437_storage)"
      },
      {
        "astId": 1420,
        "contract": "contracts/EnJoyPrediction.sol:EnJoyPrediction",
        "label": "_tableInfoMap",
        "offset": 0,
        "slot": "1",
        "type": "t_mapping(t_uint256,t_struct(TableInfo)1400_storage)"
      }
    ],
    "types": {
      "t_address": {
        "encoding": "inplace",
        "label": "address",
        "numberOfBytes": "20"
      },
      "t_array(t_bytes32)dyn_storage": {
        "base": "t_bytes32",
        "encoding": "dynamic_array",
        "label": "bytes32[]",
        "numberOfBytes": "32"
      },
      "t_bytes32": {
        "encoding": "inplace",
        "label": "bytes32",
        "numberOfBytes": "32"
      },
      "t_enum(TableResult)1388": {
        "encoding": "inplace",
        "label": "enum EnJoyPrediction.TableResult",
        "numberOfBytes": "1"
      },
      "t_mapping(t_address,t_struct(U2UMap)2437_storage)": {
        "encoding": "mapping",
        "key": "t_address",
        "label": "mapping(address => struct EnumerableMap.U2UMap)",
        "numberOfBytes": "32",
        "value": "t_struct(U2UMap)2437_storage"
      },
      "t_mapping(t_bytes32,t_bytes32)": {
        "encoding": "mapping",
        "key": "t_bytes32",
        "label": "mapping(bytes32 => bytes32)",
        "numberOfBytes": "32",
        "value": "t_bytes32"
      },
      "t_mapping(t_bytes32,t_uint256)": {
        "encoding": "mapping",
        "key": "t_bytes32",
        "label": "mapping(bytes32 => uint256)",
        "numberOfBytes": "32",
        "value": "t_uint256"
      },
      "t_mapping(t_uint256,t_struct(TableInfo)1400_storage)": {
        "encoding": "mapping",
        "key": "t_uint256",
        "label": "mapping(uint256 => struct EnJoyPrediction.TableInfo)",
        "numberOfBytes": "32",
        "value": "t_struct(TableInfo)1400_storage"
      },
      "t_struct(Bytes32Set)961_storage": {
        "encoding": "inplace",
        "label": "struct EnumerableSet.Bytes32Set",
        "members": [
          {
            "astId": 960,
            "contract": "contracts/EnJoyPrediction.sol:EnJoyPrediction",
            "label": "_inner",
            "offset": 0,
            "slot": "0",
            "type": "t_struct(Set)767_storage"
          }
        ],
        "numberOfBytes": "64"
      },
      "t_struct(Map)2207_storage": {
        "encoding": "inplace",
        "label": "struct EnumerableMap.Map",
        "members": [
          {
            "astId": 2202,
            "contract": "contracts/EnJoyPrediction.sol:EnJoyPrediction",
            "label": "_keys",
            "offset": 0,
            "slot": "0",
            "type": "t_struct(Bytes32Set)961_storage"
          },
          {
            "astId": 2206,
            "contract": "contracts/EnJoyPrediction.sol:EnJoyPrediction",
            "label": "_values",
            "offset": 0,
            "slot": "2",
            "type": "t_mapping(t_bytes32,t_bytes32)"
          }
        ],
        "numberOfBytes": "96"
      },
      "t_struct(Set)767_storage": {
        "encoding": "inplace",
        "label": "struct EnumerableSet.Set",
        "members": [
          {
            "astId": 762,
            "contract": "contracts/EnJoyPrediction.sol:EnJoyPrediction",
            "label": "_values",
            "offset": 0,
            "slot": "0",
            "type": "t_array(t_bytes32)dyn_storage"
          },
          {
            "astId": 766,
            "contract": "contracts/EnJoyPrediction.sol:EnJoyPrediction",
            "label": "_indexes",
            "offset": 0,
            "slot": "1",
            "type": "t_mapping(t_bytes32,t_uint256)"
          }
        ],
        "numberOfBytes": "64"
      },
      "t_struct(TableInfo)1400_storage": {
        "encoding": "inplace",
        "label": "struct EnJoyPrediction.TableInfo",
        "members": [
          {
            "astId": 1391,
            "contract": "contracts/EnJoyPrediction.sol:EnJoyPrediction",
            "label": "result",
            "offset": 0,
            "slot": "0",
            "type": "t_enum(TableResult)1388"
          },
          {
            "astId": 1393,
            "contract": "contracts/EnJoyPrediction.sol:EnJoyPrediction",
            "label": "startPrice",
            "offset": 1,
            "slot": "0",
            "type": "t_uint64"
          },
          {
            "astId": 1395,
            "contract": "contracts/EnJoyPrediction.sol:EnJoyPrediction",
            "label": "longPool",
            "offset": 9,
            "slot": "0",
            "type": "t_uint80"
          },
          {
            "astId": 1397,
            "contract": "contracts/EnJoyPrediction.sol:EnJoyPrediction",
            "label": "shortPool",
            "offset": 19,
            "slot": "0",
            "type": "t_uint80"
          },
          {
            "astId": 1399,
            "contract": "contracts/EnJoyPrediction.sol:EnJoyPrediction",
            "label": "playerCount",
            "offset": 29,
            "slot": "0",
            "type": "t_uint24"
          }
        ],
        "numberOfBytes": "32"
      },
      "t_struct(U2UMap)2437_storage": {
        "encoding": "inplace",
        "label": "struct EnumerableMap.U2UMap",
        "members": [
          {
            "astId": 2436,
            "contract": "contracts/EnJoyPrediction.sol:EnJoyPrediction",
            "label": "_inner",
            "offset": 0,
            "slot": "0",
            "type": "t_struct(Map)2207_storage"
          }
        ],
        "numberOfBytes": "96"
      },
      "t_uint24": {
        "encoding": "inplace",
        "label": "uint24",
        "numberOfBytes": "3"
      },
      "t_uint256": {
        "encoding": "inplace",
        "label": "uint256",
        "numberOfBytes": "32"
      },
      "t_uint64": {
        "encoding": "inplace",
        "label": "uint64",
        "numberOfBytes": "8"
      },
      "t_uint80": {
        "encoding": "inplace",
        "label": "uint80",
        "numberOfBytes": "10"
      }
    }
  }
}