{
  "address": "0x4Dd548eeba1812b5CB3c21e019929DE0ee80385A",
  "abi": [
    {
      "inputs": [
        {
          "internalType": "address[]",
          "name": "users",
          "type": "address[]"
        }
      ],
      "stateMutability": "nonpayable",
      "type": "constructor"
    },
    {
      "anonymous": false,
      "inputs": [
        {
          "indexed": true,
          "internalType": "address",
          "name": "owner",
          "type": "address"
        },
        {
          "indexed": true,
          "internalType": "address",
          "name": "spender",
          "type": "address"
        },
        {
          "indexed": false,
          "internalType": "uint256",
          "name": "value",
          "type": "uint256"
        }
      ],
      "name": "Approval",
      "type": "event"
    },
    {
      "anonymous": false,
      "inputs": [
        {
          "indexed": true,
          "internalType": "address",
          "name": "from",
          "type": "address"
        },
        {
          "indexed": true,
          "internalType": "address",
          "name": "to",
          "type": "address"
        },
        {
          "indexed": false,
          "internalType": "uint256",
          "name": "value",
          "type": "uint256"
        }
      ],
      "name": "Transfer",
      "type": "event"
    },
    {
      "inputs": [
        {
          "internalType": "address",
          "name": "owner",
          "type": "address"
        },
        {
          "internalType": "address",
          "name": "spender",
          "type": "address"
        }
      ],
      "name": "allowance",
      "outputs": [
        {
          "internalType": "uint256",
          "name": "",
          "type": "uint256"
        }
      ],
      "stateMutability": "view",
      "type": "function"
    },
    {
      "inputs": [
        {
          "internalType": "address",
          "name": "spender",
          "type": "address"
        },
        {
          "internalType": "uint256",
          "name": "amount",
          "type": "uint256"
        }
      ],
      "name": "approve",
      "outputs": [
        {
          "internalType": "bool",
          "name": "",
          "type": "bool"
        }
      ],
      "stateMutability": "nonpayable",
      "type": "function"
    },
    {
      "inputs": [
        {
          "internalType": "address",
          "name": "account",
          "type": "address"
        }
      ],
      "name": "balanceOf",
      "outputs": [
        {
          "internalType": "uint256",
          "name": "",
          "type": "uint256"
        }
      ],
      "stateMutability": "view",
      "type": "function"
    },
    {
      "inputs": [
        {
          "internalType": "address[]",
          "name": "users",
          "type": "address[]"
        },
        {
          "internalType": "address",
          "name": "contractAddr",
          "type": "address"
        }
      ],
      "name": "batchApprove",
      "outputs": [],
      "stateMutability": "nonpayable",
      "type": "function"
    },
    {
      "inputs": [],
      "name": "decimals",
      "outputs": [
        {
          "internalType": "uint8",
          "name": "",
          "type": "uint8"
        }
      ],
      "stateMutability": "pure",
      "type": "function"
    },
    {
      "inputs": [
        {
          "internalType": "address",
          "name": "spender",
          "type": "address"
        },
        {
          "internalType": "uint256",
          "name": "subtractedValue",
          "type": "uint256"
        }
      ],
      "name": "decreaseAllowance",
      "outputs": [
        {
          "internalType": "bool",
          "name": "",
          "type": "bool"
        }
      ],
      "stateMutability": "nonpayable",
      "type": "function"
    },
    {
      "inputs": [
        {
          "internalType": "address",
          "name": "spender",
          "type": "address"
        },
        {
          "internalType": "uint256",
          "name": "addedValue",
          "type": "uint256"
        }
      ],
      "name": "increaseAllowance",
      "outputs": [
        {
          "internalType": "bool",
          "name": "",
          "type": "bool"
        }
      ],
      "stateMutability": "nonpayable",
      "type": "function"
    },
    {
      "inputs": [],
      "name": "mint",
      "outputs": [],
      "stateMutability": "nonpayable",
      "type": "function"
    },
    {
      "inputs": [],
      "name": "name",
      "outputs": [
        {
          "internalType": "string",
          "name": "",
          "type": "string"
        }
      ],
      "stateMutability": "view",
      "type": "function"
    },
    {
      "inputs": [],
      "name": "symbol",
      "outputs": [
        {
          "internalType": "string",
          "name": "",
          "type": "string"
        }
      ],
      "stateMutability": "view",
      "type": "function"
    },
    {
      "inputs": [],
      "name": "totalSupply",
      "outputs": [
        {
          "internalType": "uint256",
          "name": "",
          "type": "uint256"
        }
      ],
      "stateMutability": "view",
      "type": "function"
    },
    {
      "inputs": [
        {
          "internalType": "address",
          "name": "to",
          "type": "address"
        },
        {
          "internalType": "uint256",
          "name": "amount",
          "type": "uint256"
        }
      ],
      "name": "transfer",
      "outputs": [
        {
          "internalType": "bool",
          "name": "",
          "type": "bool"
        }
      ],
      "stateMutability": "nonpayable",
      "type": "function"
    },
    {
      "inputs": [
        {
          "internalType": "address",
          "name": "from",
          "type": "address"
        },
        {
          "internalType": "address",
          "name": "to",
          "type": "address"
        },
        {
          "internalType": "uint256",
          "name": "amount",
          "type": "uint256"
        }
      ],
      "name": "transferFrom",
      "outputs": [
        {
          "internalType": "bool",
          "name": "",
          "type": "bool"
        }
      ],
      "stateMutability": "nonpayable",
      "type": "function"
    }
  ],
  "transactionHash": "0x194ae215b15957f172d4ee05590871e19bbf3af0b9de5eb21f33b3514c8bf5bb",
  "args": [
    [
      "0x4d3b9625656af699F53D364A980Ea78bb6035978"
    ]
  ],
  "numDeployments": 2,
  "solcInputHash": "b1aa58f97debd36a20679fe93320f313",
  "bytecode": "0x60806040523480156200001157600080fd5b50604051620015d5380380620015d58339810160408190526200003491620002db565b6040805180820182526008815267135bd8dac81554d160c21b6020808301918252835180850190945260048452631b5554d160e21b908401528151919291620000809160039162000202565b5080516200009690600490602084019062000202565b50508151905060005b818110156200010c57620000f9838281518110620000c157620000c1620003ad565b6020026020010151620000d96200011560201b60201c565b620000e690600a620004d8565b620000f3906064620004f0565b6200011a565b620001048162000512565b90506200009f565b50505062000585565b600690565b6001600160a01b038216620001755760405162461bcd60e51b815260206004820152601f60248201527f45524332303a206d696e7420746f20746865207a65726f206164647265737300604482015260640160405180910390fd5b80600260008282546200018991906200052e565b90915550506001600160a01b03821660009081526020819052604081208054839290620001b89084906200052e565b90915550506040518181526001600160a01b038316906000907fddf252ad1be2c89b69c2b068fc378daa952ba7f163c4a11628f55a4df523b3ef9060200160405180910390a35050565b828054620002109062000549565b90600052602060002090601f0160209004810192826200023457600085556200027f565b82601f106200024f57805160ff19168380011785556200027f565b828001600101855582156200027f579182015b828111156200027f57825182559160200191906001019062000262565b506200028d92915062000291565b5090565b5b808211156200028d576000815560010162000292565b634e487b7160e01b600052604160045260246000fd5b80516001600160a01b0381168114620002d657600080fd5b919050565b60006020808385031215620002ef57600080fd5b82516001600160401b03808211156200030757600080fd5b818501915085601f8301126200031c57600080fd5b815181811115620003315762000331620002a8565b8060051b604051601f19603f83011681018181108582111715620003595762000359620002a8565b6040529182528482019250838101850191888311156200037857600080fd5b938501935b82851015620003a1576200039185620002be565b845293850193928501926200037d565b98975050505050505050565b634e487b7160e01b600052603260045260246000fd5b634e487b7160e01b600052601160045260246000fd5b600181815b808511156200041a578160001904821115620003fe57620003fe620003c3565b808516156200040c57918102915b93841c9390800290620003de565b509250929050565b6000826200043357506001620004d2565b816200044257506000620004d2565b81600181146200045b5760028114620004665762000486565b6001915050620004d2565b60ff8411156200047a576200047a620003c3565b50506001821b620004d2565b5060208310610133831016604e8410600b8410161715620004ab575081810a620004d2565b620004b78383620003d9565b8060001904821115620004ce57620004ce620003c3565b0290505b92915050565b6000620004e960ff84168362000422565b9392505050565b60008160001904831182151516156200050d576200050d620003c3565b500290565b600060018201620005275762000527620003c3565b5060010190565b60008219821115620005445762000544620003c3565b500190565b600181811c908216806200055e57607f821691505b6020821081036200057f57634e487b7160e01b600052602260045260246000fd5b50919050565b61104080620005956000396000f3fe608060405234801561001057600080fd5b50600436106100df5760003560e01c8063395093511161008c578063a457c2d711610066578063a457c2d7146101b4578063a9059cbb146101c7578063dd62ed3e146101da578063e020f4411461022057600080fd5b8063395093511461016357806370a082311461017657806395d89b41146101ac57600080fd5b806318160ddd116100bd57806318160ddd1461012f57806323b872dd14610141578063313ce5671461015457600080fd5b806306fdde03146100e4578063095ea7b3146101025780631249c58b14610125575b600080fd5b6100ec610233565b6040516100f99190610b22565b60405180910390f35b610115610110366004610bbe565b6102c5565b60405190151581526020016100f9565b61012d6102df565b005b6002545b6040519081526020016100f9565b61011561014f366004610be8565b610301565b604051600681526020016100f9565b610115610171366004610bbe565b610325565b610133610184366004610c24565b73ffffffffffffffffffffffffffffffffffffffff1660009081526020819052604090205490565b6100ec610371565b6101156101c2366004610bbe565b610380565b6101156101d5366004610bbe565b610456565b6101336101e8366004610c46565b73ffffffffffffffffffffffffffffffffffffffff918216600090815260016020908152604080832093909416825291909152205490565b61012d61022e366004610ca8565b610464565b60606003805461024290610d9d565b80601f016020809104026020016040519081016040528092919081815260200182805461026e90610d9d565b80156102bb5780601f10610290576101008083540402835291602001916102bb565b820191906000526020600020905b81548152906001019060200180831161029e57829003601f168201915b5050505050905090565b6000336102d38185856104cb565b60019150505b92915050565b6102ff336102ef6006600a610f3f565b6102fa906064610f4e565b61067e565b565b60003361030f85828561079e565b61031a85858561086f565b506001949350505050565b33600081815260016020908152604080832073ffffffffffffffffffffffffffffffffffffffff871684529091528120549091906102d3908290869061036c908790610f8b565b6104cb565b60606004805461024290610d9d565b33600081815260016020908152604080832073ffffffffffffffffffffffffffffffffffffffff8716845290915281205490919083811015610449576040517f08c379a000000000000000000000000000000000000000000000000000000000815260206004820152602560248201527f45524332303a2064656372656173656420616c6c6f77616e63652062656c6f7760448201527f207a65726f00000000000000000000000000000000000000000000000000000060648201526084015b60405180910390fd5b61031a82868684036104cb565b6000336102d381858561086f565b815160005b818110156104c5576104b584828151811061048657610486610fa3565b6020026020010151847fffffffffffffffffffffffffffffffffffffffffffffffffffffffffffffffff6104cb565b6104be81610fd2565b9050610469565b50505050565b73ffffffffffffffffffffffffffffffffffffffff831661056d576040517f08c379a0000000000000000000000000000000000000000000000000000000008152602060048201526024808201527f45524332303a20617070726f76652066726f6d20746865207a65726f2061646460448201527f72657373000000000000000000000000000000000000000000000000000000006064820152608401610440565b73ffffffffffffffffffffffffffffffffffffffff8216610610576040517f08c379a000000000000000000000000000000000000000000000000000000000815260206004820152602260248201527f45524332303a20617070726f766520746f20746865207a65726f20616464726560448201527f73730000000000000000000000000000000000000000000000000000000000006064820152608401610440565b73ffffffffffffffffffffffffffffffffffffffff83811660008181526001602090815260408083209487168084529482529182902085905590518481527f8c5be1e5ebec7d5bd14f71427d1e84f3dd0314c0f7b2291e5b200ac8c7c3b925910160405180910390a3505050565b73ffffffffffffffffffffffffffffffffffffffff82166106fb576040517f08c379a000000000000000000000000000000000000000000000000000000000815260206004820152601f60248201527f45524332303a206d696e7420746f20746865207a65726f2061646472657373006044820152606401610440565b806002600082825461070d9190610f8b565b909155505073ffffffffffffffffffffffffffffffffffffffff821660009081526020819052604081208054839290610747908490610f8b565b909155505060405181815273ffffffffffffffffffffffffffffffffffffffff8316906000907fddf252ad1be2c89b69c2b068fc378daa952ba7f163c4a11628f55a4df523b3ef9060200160405180910390a35050565b73ffffffffffffffffffffffffffffffffffffffff8381166000908152600160209081526040808320938616835292905220547fffffffffffffffffffffffffffffffffffffffffffffffffffffffffffffffff81146104c55781811015610862576040517f08c379a000000000000000000000000000000000000000000000000000000000815260206004820152601d60248201527f45524332303a20696e73756666696369656e7420616c6c6f77616e63650000006044820152606401610440565b6104c584848484036104cb565b73ffffffffffffffffffffffffffffffffffffffff8316610912576040517f08c379a000000000000000000000000000000000000000000000000000000000815260206004820152602560248201527f45524332303a207472616e736665722066726f6d20746865207a65726f20616460448201527f64726573730000000000000000000000000000000000000000000000000000006064820152608401610440565b73ffffffffffffffffffffffffffffffffffffffff82166109b5576040517f08c379a000000000000000000000000000000000000000000000000000000000815260206004820152602360248201527f45524332303a207472616e7366657220746f20746865207a65726f206164647260448201527f65737300000000000000000000000000000000000000000000000000000000006064820152608401610440565b73ffffffffffffffffffffffffffffffffffffffff831660009081526020819052604090205481811015610a6b576040517f08c379a000000000000000000000000000000000000000000000000000000000815260206004820152602660248201527f45524332303a207472616e7366657220616d6f756e742065786365656473206260448201527f616c616e636500000000000000000000000000000000000000000000000000006064820152608401610440565b73ffffffffffffffffffffffffffffffffffffffff808516600090815260208190526040808220858503905591851681529081208054849290610aaf908490610f8b565b925050819055508273ffffffffffffffffffffffffffffffffffffffff168473ffffffffffffffffffffffffffffffffffffffff167fddf252ad1be2c89b69c2b068fc378daa952ba7f163c4a11628f55a4df523b3ef84604051610b1591815260200190565b60405180910390a36104c5565b600060208083528351808285015260005b81811015610b4f57858101830151858201604001528201610b33565b81811115610b61576000604083870101525b50601f017fffffffffffffffffffffffffffffffffffffffffffffffffffffffffffffffe016929092016040019392505050565b803573ffffffffffffffffffffffffffffffffffffffff81168114610bb957600080fd5b919050565b60008060408385031215610bd157600080fd5b610bda83610b95565b946020939093013593505050565b600080600060608486031215610bfd57600080fd5b610c0684610b95565b9250610c1460208501610b95565b9150604084013590509250925092565b600060208284031215610c3657600080fd5b610c3f82610b95565b9392505050565b60008060408385031215610c5957600080fd5b610c6283610b95565b9150610c7060208401610b95565b90509250929050565b7f4e487b7100000000000000000000000000000000000000000000000000000000600052604160045260246000fd5b60008060408385031215610cbb57600080fd5b823567ffffffffffffffff80821115610cd357600080fd5b818501915085601f830112610ce757600080fd5b8135602082821115610cfb57610cfb610c79565b8160051b6040517fffffffffffffffffffffffffffffffffffffffffffffffffffffffffffffffe0603f83011681018181108682111715610d3e57610d3e610c79565b604052928352818301935084810182019289841115610d5c57600080fd5b948201945b83861015610d8157610d7286610b95565b85529482019493820193610d61565b9650610d909050878201610b95565b9450505050509250929050565b600181811c90821680610db157607f821691505b602082108103610dea577f4e487b7100000000000000000000000000000000000000000000000000000000600052602260045260246000fd5b50919050565b7f4e487b7100000000000000000000000000000000000000000000000000000000600052601160045260246000fd5b600181815b80851115610e7857817fffffffffffffffffffffffffffffffffffffffffffffffffffffffffffffffff04821115610e5e57610e5e610df0565b80851615610e6b57918102915b93841c9390800290610e24565b509250929050565b600082610e8f575060016102d9565b81610e9c575060006102d9565b8160018114610eb25760028114610ebc57610ed8565b60019150506102d9565b60ff841115610ecd57610ecd610df0565b50506001821b6102d9565b5060208310610133831016604e8410600b8410161715610efb575081810a6102d9565b610f058383610e1f565b807fffffffffffffffffffffffffffffffffffffffffffffffffffffffffffffffff04821115610f3757610f37610df0565b029392505050565b6000610c3f60ff841683610e80565b6000817fffffffffffffffffffffffffffffffffffffffffffffffffffffffffffffffff0483118215151615610f8657610f86610df0565b500290565b60008219821115610f9e57610f9e610df0565b500190565b7f4e487b7100000000000000000000000000000000000000000000000000000000600052603260045260246000fd5b60007fffffffffffffffffffffffffffffffffffffffffffffffffffffffffffffffff820361100357611003610df0565b506001019056fea264697066735822122086dcf51c6eea2b629fa60b3158bebd6024fdfeb5431aa4c698843d27e79b402164736f6c634300080d0033",
  "devdoc": {
    "kind": "dev",
    "methods": {
      "allowance(address,address)": {
        "details": "See {IERC20-allowance}."
      },
      "approve(address,uint256)": {
        "details": "See {IERC20-approve}. NOTE: If `amount` is the maximum `uint256`, the allowance is not updated on `transferFrom`. This is semantically equivalent to an infinite approval. Requirements: - `spender` cannot be the zero address."
      },
      "balanceOf(address)": {
        "details": "See {IERC20-balanceOf}."
      },
      "decimals()": {
        "details": "Returns the number of decimals used to get its user representation. For example, if `decimals` equals `2`, a balance of `505` tokens should be displayed to a user as `5.05` (`505 / 10 ** 2`). Tokens usually opt for a value of 18, imitating the relationship between Ether and Wei. This is the value {ERC20} uses, unless this function is overridden; NOTE: This information is only used for _display_ purposes: it in no way affects any of the arithmetic of the contract, including {IERC20-balanceOf} and {IERC20-transfer}."
      },
      "decreaseAllowance(address,uint256)": {
        "details": "Atomically decreases the allowance granted to `spender` by the caller. This is an alternative to {approve} that can be used as a mitigation for problems described in {IERC20-approve}. Emits an {Approval} event indicating the updated allowance. Requirements: - `spender` cannot be the zero address. - `spender` must have allowance for the caller of at least `subtractedValue`."
      },
      "increaseAllowance(address,uint256)": {
        "details": "Atomically increases the allowance granted to `spender` by the caller. This is an alternative to {approve} that can be used as a mitigation for problems described in {IERC20-approve}. Emits an {Approval} event indicating the updated allowance. Requirements: - `spender` cannot be the zero address."
      },
      "name()": {
        "details": "Returns the name of the token."
      },
      "symbol()": {
        "details": "Returns the symbol of the token, usually a shorter version of the name."
      },
      "totalSupply()": {
        "details": "See {IERC20-totalSupply}."
      },
      "transfer(address,uint256)": {
        "details": "See {IERC20-transfer}. Requirements: - `to` cannot be the zero address. - the caller must have a balance of at least `amount`."
      },
      "transferFrom(address,address,uint256)": {
        "details": "See {IERC20-transferFrom}. Emits an {Approval} event indicating the updated allowance. This is not required by the EIP. See the note at the beginning of {ERC20}. NOTE: Does not update the allowance if the current allowance is the maximum `uint256`. Requirements: - `from` and `to` cannot be the zero address. - `from` must have a balance of at least `amount`. - the caller must have allowance for ``from``'s tokens of at least `amount`."
      }
    },
    "version": 1
  },
  "userdoc": {
    "kind": "user",
    "methods": {},
    "version": 1
  },
  "storageLayout": {
    "storage": [
      {
        "astId": 15,
        "contract": "contracts/mocks/MockUSDT.sol:MockUSDT",
        "label": "_balances",
        "offset": 0,
        "slot": "0",
        "type": "t_mapping(t_address,t_uint256)"
      },
      {
        "astId": 21,
        "contract": "contracts/mocks/MockUSDT.sol:MockUSDT",
        "label": "_allowances",
        "offset": 0,
        "slot": "1",
        "type": "t_mapping(t_address,t_mapping(t_address,t_uint256))"
      },
      {
        "astId": 23,
        "contract": "contracts/mocks/MockUSDT.sol:MockUSDT",
        "label": "_totalSupply",
        "offset": 0,
        "slot": "2",
        "type": "t_uint256"
      },
      {
        "astId": 25,
        "contract": "contracts/mocks/MockUSDT.sol:MockUSDT",
        "label": "_name",
        "offset": 0,
        "slot": "3",
        "type": "t_string_storage"
      },
      {
        "astId": 27,
        "contract": "contracts/mocks/MockUSDT.sol:MockUSDT",
        "label": "_symbol",
        "offset": 0,
        "slot": "4",
        "type": "t_string_storage"
      }
    ],
    "types": {
      "t_address": {
        "encoding": "inplace",
        "label": "address",
        "numberOfBytes": "20"
      },
      "t_mapping(t_address,t_mapping(t_address,t_uint256))": {
        "encoding": "mapping",
        "key": "t_address",
        "label": "mapping(address => mapping(address => uint256))",
        "numberOfBytes": "32",
        "value": "t_mapping(t_address,t_uint256)"
      },
      "t_mapping(t_address,t_uint256)": {
        "encoding": "mapping",
        "key": "t_address",
        "label": "mapping(address => uint256)",
        "numberOfBytes": "32",
        "value": "t_uint256"
      },
      "t_string_storage": {
        "encoding": "bytes",
        "label": "string",
        "numberOfBytes": "32"
      },
      "t_uint256": {
        "encoding": "inplace",
        "label": "uint256",
        "numberOfBytes": "32"
      }
    }
  }
}